{
  "contractName": "Airdrop",
  "abi": [
    {
      "constant": true,
      "inputs": [],
      "name": "owner",
      "outputs": [
        {
          "name": "",
          "type": "address"
        }
      ],
      "payable": false,
      "stateMutability": "view",
      "type": "function"
    },
    {
      "constant": false,
      "inputs": [
        {
          "name": "newOwner",
          "type": "address"
        }
      ],
      "name": "transferOwnership",
      "outputs": [],
      "payable": false,
      "stateMutability": "nonpayable",
      "type": "function"
    },
    {
      "inputs": [],
      "payable": false,
      "stateMutability": "nonpayable",
      "type": "constructor"
    },
    {
      "anonymous": false,
      "inputs": [
        {
          "indexed": true,
          "name": "previousOwner",
          "type": "address"
        },
        {
          "indexed": true,
          "name": "newOwner",
          "type": "address"
        }
      ],
      "name": "OwnershipTransferred",
      "type": "event"
    },
    {
      "constant": false,
      "inputs": [
        {
          "name": "_recipients",
          "type": "address[]"
        },
        {
          "name": "_values",
          "type": "uint256[]"
        }
      ],
      "name": "batchTransfer",
      "outputs": [],
      "payable": false,
      "stateMutability": "nonpayable",
      "type": "function"
    }
  ],
  "bytecode": "0x608060405234801561001057600080fd5b5060008054600160a060020a031990811633179091556001805490911673bc3e373d2b24faf1dfe5b3f3acff9d66a7b488691790556102d0806100546000396000f3006080604052600436106100565763ffffffff7c010000000000000000000000000000000000000000000000000000000060003504166388d695b2811461005b5780638da5cb5b14610089578063f2fde38b146100ba575b600080fd5b34801561006757600080fd5b5061008760246004803582810192908201359181359182019101356100db565b005b34801561009557600080fd5b5061009e610201565b60408051600160a060020a039092168252519081900360200190f35b3480156100c657600080fd5b50610087600160a060020a0360043516610210565b60008054600160a060020a031633146100f357600080fd5b60008411801561010257508382145b151561010d57600080fd5b5060005b838110156101fa57600154600160a060020a031663a9059cbb86868481811061013657fe5b90506020020135600160a060020a0316858585818110151561015457fe5b905060200201356040518363ffffffff167c01000000000000000000000000000000000000000000000000000000000281526004018083600160a060020a0316600160a060020a0316815260200182815260200192505050602060405180830381600087803b1580156101c657600080fd5b505af11580156101da573d6000803e3d6000fd5b505050506040513d60208110156101f057600080fd5b5050600101610111565b5050505050565b600054600160a060020a031681565b600054600160a060020a0316331461022757600080fd5b600160a060020a038116151561023c57600080fd5b60008054604051600160a060020a03808516939216917f8be0079c531659141344cd1fd0a4f28419497f9722a3daafe3b4186f6b6457e091a36000805473ffffffffffffffffffffffffffffffffffffffff1916600160a060020a03929092169190911790555600a165627a7a7230582038a79da5534922d40eef717ea46cde9e64bb7b7f40f6641e3e0a29a11018abcb0029",
  "source": "pragma solidity ^0.4.18;\n\nimport \"./Ownable.sol\";\nimport \"./ERC20.sol\";\n\n/**\n * @title Airdrop\n * @dev Token Batch Transfer for Airdrop campaign\n */\ncontract Airdrop is Ownable {\n\n  ERC20 token;\n\n  /**\n  * Contructor\n  */\n  constructor() public {\n    // require(_token != address(0));\n\n    token = ERC20(0xbC3e373D2B24FaF1DFe5b3F3ACff9d66a7b48869);\n  }\n\n  /* Batch token transfer. Used by contract creator to distribute initial tokens to holders */\n  function batchTransfer(address[] _recipients, uint[] _values) external onlyOwner {\n    require(_recipients.length > 0 && _recipients.length == _values.length);\n\n    for (uint i = 0; i < _recipients.length; i++) {\n      token.transfer(_recipients[i], _values[i]);\n    }\n  }\n\n}",
  "sourcePath": "/Volumes/media/workspace/blockchain/ubiq/AirDrop/contracts/Airdrop.sol",
  "compiler": {
    "name": "solc",
    "version": "0.4.24+commit.e67f0147.Emscripten.clang"
  },
  "schemaVersion": "2.0.1",
  "updatedAt": "2018-08-11T07:59:50.232Z"
}